:020000020000FC
:0200000020C01E
:100040001AC1239A2B98249A2C98259A2D9840EF20
:100050004AB94FEF4BB944E045BD44E646BD7894FC
:1000600041E040936E0040E0D42E1CD04ED003D12E
:1000700041E0D41609F0FACF38D000C046D0C5D040
:10008000CFD0D9D002D049D1F9CFF82FE92F40E015
:100090004083F62FE72F41E04083F32FE52F41E027
:1000A00040830895A0E0B1E044E14D9347E04D93D3
:1000B00045E04D9345E14D9342E14D9342E04D9330
:1000C00042E04D9340E04D9341E04D9342E04D932B
:1000D00042E04D934FE04D934BE04D9340E14D9303
:1000E00041E14D9348E04D93089581E090E061E057
:1000F00077E031E05CE001D00895E0E0F1E042E03B
:1001000010E141931A95E9F708954FE74BB90000C4
:100110004B9B43D04A9B3DD0499B3BD0489B39D019
:100120004FEB4BB900004B9B34D04A9B1CD0499BF2
:1001300030D0489B2ED04FED4BB900004B9B1FD0C9
:100140004A9B21D0499B17D0489B23D04FEE4BB9F7
:1001500000004B9B1ED04A9B0AD0499B1AD0489B5B
:1001600018D0E894089516F01CD06894FBCF16F0D0
:1001700024D06894F7CF16F03AD06894F3CF16F0F5
:1001800028D06894EFCF26F041E0D42EAEDF6894FB
:10019000E9CF16F043986894E5CF16F083DF6894B2
:1001A000E1CFBBD0F82FE92F42E0408348E0941B19
:1001B000903108F40895940F0895AFD0F82FE92FE7
:1001C00042E0408348E0940F903108F40895941B76
:1001D0000895A3D0F82FE92F42E040839A95E030AC
:1001E00019F0E83009F0089541E0940F089595D092
:1001F000F82FE92F42E040839395E73019F0EF3074
:1002000009F0089541E0941B0895F62FE72F42E08E
:1002100040837A95E03009F0089548E0740F08951E
:10022000F32FE52F42E040835A95E83009F0089516
:1002300048E0540F0895971719F0951709F008959D
:1002400000D0A0E0B1E044E04D9345E04D9346E09E
:100250004D9342E04D9347E04D9345E04D9348E088
:100260004D9349E04D9342E018E04D931A95E9F71C
:1002700040E0D42EFBCE04E606BD7FB65F92FF932E
:10028000EF937F920F931F932F933F9307E0102FCD
:1002900001E0202F00E1302FC0E1D1E0F3E0EEE2F9
:1002A0006624E10FF61D0A91402E08E06624E40D55
:1002B000F61D0A95D9F7E49005E088942B98E79409
:1002C00008F42B9A2D982D9A0A95C1F73A9531F793
:1002D00008E088942B98279508F42B9A2D982D9A4E
:1002E0000A95C1F70DD01A952223A1F63F912F91BF
:1002F0001F910F917F907FBEEF91FF915F901895B6
:100300002C9A2C9808950FEF502E00000FEF00004C
:100310000A95E9F75A94C9F70895F5DFF4DFF3DF9A
:10032000F2DFF1DFF0DFEFDFEEDFEDDF0895FFFF5B
:10033000FFFFFFFFFF0000150E1B0E150000000061
:10034000000000000000040E150415151F00111117
:100350000A04040404000E11111111110E001111F0
:10036000111111110E001010101010101F000E119D
:10037000100E01110E001F10101F10101F00111180
:10038000151515150A001F04040404041F00111993
:100390001515151311001C12111111121C000E114C
:1003A000101711110F00111111110A0A04001E116A
:1003B000111E141211001111111111110E00111240
:1003C000141814121100040A111F111111000E0942
:0E03D000090E09090E000609080808090600B2
:00000001FF
